:020000041000EA
:10000000002008205D0100101B0100101D010010E0
:100010001101001011010010110100101101001058
:100020001901001019010010190100101F01001022
:10003000110100101901001021010010230100100E
:100040001101001011010010110100101101001028
:100050001101001011010010110100101101001018
:100060001101001011010010110100101101001008
:1000700011010010110100101101001011010010F8
:1000800011010010110100101101001011010010E8
:1000900011010010110100101101001011010010D8
:1000A00011010010110100101101001011010010C8
:1000B00011010010110100101101001011010010B8
:1000C00011010010110100101101001011010010A8
:1000D0001101001011010010110100101101001098
:1000E0001101001011010010110100101101001088
:1000F0001101001011010010110100101101001078
:100100001101001011010010110100101101001067
:10011000EFF30580103800BE00BE00BE00BE00BE7A
:1001200000BE00BEF2EB88714C0405106C04051093
:10013000A001001090A31AE7D3DEFFFF42012110B7
:10014000FF0100004C160500793512AB4FF000009E
:100150001E49086006C881F3088810474FF05040D8
:10016000006810B14FF00000F2E70DA40ECC00299A
:1001700002D000F012F8F9E71549164A002000E015
:1001800001C19142FCD11449884714498847144958
:10019000884700BEFDE701C901C29A42FBD3704700
:1001A0006C0405102001002038140020841705106D
:1001B0000000082000000820841705100010082007
:1001C00000100820000000007047000008ED00E06B
:1001D000381400201CE1002059340010F1020010F6
:1001E00051340010F8B500BF0348044B834202D0DD
:1001F000034B03B11847704738140020381400200F
:1002000000000000064B0749C91A891048BF013198
:10021000491003D0044B0BB101481847704700BF89
:1002200038140020381400200000000010B5064CDF
:10023000237843B9FFF7D8FF044B13B10448AFF359
:1002400000800123237010BDD016002000000000A4
:10025000F863011008B5044B1BB104490448AFF31F
:100260000080BDE80840CDE700000000D416002063
:10027000F863011038B5051E11DD002401210020AE
:1002800010F016F8C82001F03DF90021084610F0E2
:100290000FF80134C82001F035F9A542EED1BDE8D0
:1002A00038404FF47A7001F02DB900BF08B5012134
:1002B00000200FF0FDFF642001F024F90021084622
:1002C0000FF0F6FF642001F01DF9F0E708B50121F9
:1002D00000200FF0EDFF322001F014F90021084654
:1002E0000FF0E6FF4FF4FA6001F00CF9EFE700BF02
:1002F00008B503F0DFF90FF0E9FF78B90120FFF747
:10030000B9FF0FF087FF0220FFF7B4FF47F2305329
:10031000084A094909480FF089FF08B1FFF7C6FFED
:100320000320FFF7A7FF15F0A9FC0420FFF7A2FFA9
:10033000FFF7CCFF04004000F863011004640110D3
:1003400010B44FF480740C4B53F8202003EB80035F
:10035000C00082F0400200F1804003F5805C02F0B2
:10036000C00200F5203003F54053CCF80020416076
:100370001C605DF8044B70470480034010B4084CC7
:10038000C90041EA820154F8202004EB8003514067
:1003900003F5805301F00C015DF8044B19607047C0
:1003A00004800340022221B1044B904003441A60B0
:1003B0007047034B904003441A60704704A0034009
:1003C00004B0034070B44FF050460F4B36680F4DE9
:1003D00000F0070C002E18BF2B46C0080C4C4FEA4B
:1003E0008C0C01FA0CF103EB80038C3044F82010E4
:1003F00022B170BC03F500531960704703F54053F8
:10040000196070BC704700BF488202409082024071
:10041000008002402DE9F0414FF050480D4FD8F8D0
:100420000030164657F82320044602420D4609D1F3
:1004300014432946324647F823401520BDE8F041D1
:1004400000F0D8B901F0AEFAD8F8003057F8232000
:10045000EEE700BF70E0002010B50446152000F064
:10046000CBFA4FF05043044A196852F8213023EA7E
:10047000040342F8213010BD70E0002030B44FF08A
:10048000000343EC440043EC400005254FF4807426
:100490000B4BC20053F8201003EB800081F04001A9
:1004A00002F1804303F5203301F0C00200F58051D2
:1004B00000F540500A605D60046030BC704700BFCA
:1004C000048003400FB400B583B0049C074803F0D8
:1004D00035F93CB105A92046019102F09FFF04487F
:1004E00003F02CF9012002F0B1FF00BF0C640110F1
:1004F000C0F80410EFF3108072B6064BD3E8CF1F9C
:1005000001220029FAD1C3E8412F0029F6D1BFF317
:100510005F8F7047D31700200023034AC2E88F3F44
:1005200080F31088704700BFD317002070B586464F
:10053000EFF3108572B6124CD4E8CF6F0120002E75
:10054000FAD1C4E8460F002EF6D1BFF35F8F4FF00B
:10055000010CC80801F007030CFA03F31EF800C0F1
:100560001CEA030608D14CEA030C0EF800C0C4E8EC
:100570008F6F85F3108870BD1046FFF7A3FF00BF93
:10058000D3170020F8B5EFF3108572B6234CD4E8EA
:10059000CF7F0126002FFAD1C4E8476F002FF6D194
:1005A000BFF35F8F9A4227D80126D70810F807E0DB
:1005B00002F0070C06FA0CFC1EEA0C0F00EBD20747
:1005C0000DD125E04FEAD20E10F80EE002F0070C34
:1005D00006FA0CFC1EEA0C0F00EBD20718D0013211
:1005E0009342EFD24FF0FF300023C4E88F3F85F3F2
:1005F0001088984207DBF8BD0023C4E88F3F85F3DD
:1006000010884FF0FF300029F5D00698FFF75AFF09
:100610004EEA0C0E104687F800E0E5E7D3170020FD
:1006200000B5EFF3108E72B6104BD3E8CFCF012296
:10063000BCF1000FF9D1C3E84C2FBCF1000FF4D18D
:10064000BFF35F8F01224FEAD10C01F0070102FADC
:1006500001F110F80C2022EA010200F80C2000221F
:10066000C3E88F2F8EF310885DF804FBD3170020AA
:10067000044A1078431CDBB2182B28BF10231370D8
:10068000704700BF3013002010B5054C82B0014602
:100690001F23182200940348FFF774FF02B010BD17
:1006A0001C640110101D00204FF0E022936843F0FD
:1006B00000539360704700BF0021044B03F12002F8
:1006C000C3E88F1F01339342FAD17047C817002047
:1006D0004FF0E0234FF08032C3F80024C3F8042425
:1006E000C3F80824C3F80C24C3F81024C3F8142456
:1006F000C3F81824C3F81C24C3F82024C3F8242406
:10070000C3F82824C3F82C24C3F8302462B67047F9
:10071000012300F01F029340400941B1800000F125
:10072000604000F56140C0F8803103607047024AC4
:10073000203042F82030704700E100E00123064AF3
:10074000410952F8212000F01F008340134214BFDA
:1007500001200020704700BF00E100E001224309B2
:10076000034900F01F008240403341F823207047C6
:1007700000E100E0054A10309268054B52F8200075
:10078000C01A2F288CBF00200120704700ED00E028
:1007900034130020F8B50D46EFF3108772B6124EF1
:1007A000D6E8CF2F0123002AFAD1C6E8423F002A1B
:1007B000F6D1BFF35F8F0D4B00F110049B680C4A1C
:1007C00053F82430934203D0994201D001F0EAF863
:1007D000064B9B6843F82450BFF35F8F0023C6E8A5
:1007E0008F3F87F31088F8BDD117002000ED00E09F
:1007F000110100102DE9F04F81468B46164685B059
:10080000EFF3108272B6DFF8ECA1DAE8CF1F012314
:100810000029FAD1CAE8413F0029F6D1BFF35F8F22
:100820006D4B93F90040002CC0F28C806B4D04EBB3
:10083000440705EB870898F8061009F110091970AC
:10084000674BBF009B6853F829006300411B2F29A9
:1008500001932FD96349884240F0B28063001C4461
:10086000614B02372F44043BDB1BC3F34A036FEA9F
:10087000C3434FF421416FEAD34325F8241005EB1D
:10088000840463804BF60153A380FF2348F00100EA
:10089000E671C4F808B0A371514B9B6843F8290076
:1008A000BFF35F8F0023CAE88F3F82F3108805B043
:1008B000BDE8F08F20F0010E9EF80710B14288BF0E
:1008C00002972ED84FF42143EB53474BB91C2944D0
:1008D000043B04375B1A2F44AEF10401434CC91B9F
:1008E000C1F34A012143A8F80410C3F34A03404965
:1008F0002343A8F802304AF6AA2073465B1B5B41EB
:100900005843000D88F8076088F80600C8F808B05A
:1009100048F00100CEF80010BEE7CF79B74219D9F0
:100920008E469EF906C00CEB4C01BCF1000F05EBA6
:100930008101F2DA01934BF6015303930EF10403A4
:1009400002931FE0019201F02DF8234B019A93F9D5
:1009500000406BE70193BEF804300EF10401029FE2
:100960000291590531D4029B4915023103EB410331
:100970006FF00701C91B491B1944C1F34A0141F437
:10098000604303930299A8F104077F1AC7F34A074B
:100990006FEAC747019B6FEAD747234498468EF812
:1009A00006400399124C05EB8303AEF8047045F83A
:1009B0002840998083F806C0DE71C3F808B06BE761
:1009C000019200F0EFFF019A48E701F5FF1101F5F0
:1009D000FF511F31C7E700BF0EE100203413002094
:1009E00000ED00E0110100106413002000E0FFFFA3
:1009F00001488047D11700202DE9F04F83B0EFF375
:100A0000108A72B6744ED6E8CF2F0123002AFAD18D
:100A1000C6E8423F002AF6D1BFF35F8F6F4B00F16B
:100A200010089B686E4A53F8285095423FD08D427B
:100A30000C464AD06B4FEB1B2F2B38D801214FEAC5
:100A400050194FEA890909F1604909F5614900F037
:100A50001F0301FA03F0D9F80030C9F8800000EA5A
:100A6000030BBFF35F8FEFF30581C9B279B38845FC
:100A700077D125F0010EDEF808C0644505D17CE091
:100A8000D3F808C0644532D09E469EF9062002EB9A
:100A90004203002A07EB8303F2DA644500F0818009
:100AA000BBF1000F20D0C9F88001C9F800004B4B02
:100AB0009B6843F82850BFF35F8F0023C6E88F3F41
:100AC0008AF3108803B0BDE8F08F1546EFE725F0F4
:100AD000010EDEF808C06445D7D19EF90640734682
:100AE000002C08DA154666E0C9F88000DFE793F9C4
:100AF0000640002C56DB04EB440C07EB8C0CDCF8B6
:100B0000082061009A609CF80720DA719CF90620A1
:100B1000002A9A715DDBBCF80420520504D502F569
:100B2000FF1202F5FF521F32521502F1020C4FF074
:100B3000040E0C2212FB04E202EB4C026FF0070CD5
:100B40003A44ACEB030C6244C2F34A0242F4604202
:100B50009A80254B21441A7807EB81011C708A7119
:100B60009EE7CDE9000100F01DFFDDE9000125F061
:100B7000010EDEF808C0644587D19EF90640734631
:100B8000002CB8DA194A1A4CD21A083AC2F30A31C0
:100B90006FEA01516FEA115144EA5202DA809980FA
:100BA0007EE773460029EDD1FF228EF806204BF632
:100BB0000152AEF804200C4C4AF6AA2294F800C068
:100BC0001946C91B49414A43120D83F806C02270D9
:100BD00066E74BF60152BBE7D117002000ED00E0BD
:100BE00011010010341300200EE100206E130020CC
:100BF00000F8FFFF4FF0FF0C20F0030303F1604308
:100C000003F5644300F003001A68C0000CFA00FC0E
:100C100022EA0C0281400A431A607047F0B5EFF3F4
:100C20000585EDB2EFF3108C72B62649D1E8CF2FCF
:100C30000123002AFAD1C1E8423F002AF6D1BFF3CE
:100C40005F8F214E40F0010EB4684AF6AA2354F893
:100C500025701E4A0446A41A644163431B0D774560
:100C60005BB21BD092F906409C421CD092F9124014
:100C70009C4223D092F91E409C4221D092F92A40F6
:100C80009C4208BF03240FD0114A0024157813702A
:100C90008571C1E88F4F8CF31088F0BDB2680D4CA0
:100CA00042F82540F0E7002404EB440402EB840200
:100CB000FF2494714BF601549480E5E70124F3E797
:100CC0000224F1E7D117002000ED00E034130020EA
:100CD0000EE100201101001001460248C1F133016C
:100CE000FFF79EBC1AE1002010B5074C82B0014608
:100CF0000523002200940548FFF744FC0028A8BF04
:100D0000C0F1330002B010BD386401101AE10020B8
:100D100070B5044616460D46FFF7AAFC014620466C
:100D200000F006F8E680A580BFF35F8F70BD00BFBE
:100D3000014B0B4403607047C8170020F8B5124DF3
:100D4000124EB5421FD22C462368FF277BB1FFF716
:100D50008FFC01462846FFF7EBFFA780BFF35F8FAC
:100D60000834B4420FD223682546002BEFD1FFF799
:100D70007FFC01462846FFF7DBFF2771BFF35F8F3B
:100D80000834B442EFD3F8BD3014002038140020EA
:100D900010B50446FFF76CFC01462046FFF7C8FF7C
:100DA000FF232371BFF35F8F10BD00BF10B5044652
:100DB000FFF75EFC01462046FFF7BAFFFF23A38042
:100DC000BFF35F8F10BD00BF10B504460120FFF7D1
:100DD0005BFC034B03442360BFF35F8F10BD00BF78
:100DE000C8170020024B0B440360BFF35F8F7047AE
:100DF000C81700200D4B1A68EFF3108172B6D2E8C5
:100E0000CFCF0120BCF1000FF9D1C2E84C0FBCF1EB
:100E1000000FF4D1BFF35F8F00221B68C3E88F2F50
:100E200081F3108840BF00200021704790E000202F
:100E30002DE9F04F2DED028B85B0EFF30583DBB28A
:100E4000103B9A0818BF01224FF0010103F0030084
:100E500008BFAD4DAD4B18BFAD4D00EB820253F84E
:100E6000226001FA00FB05F541539FEDA58B01902F
:100E7000C3F804B02EE0B388190440F19180B3792F
:100E8000002B40F0DB80B6F90820002AC0F21A815E
:100E9000736902EB420203EBC203D3E90247B7F1E5
:100EA000FF3F08BFB4F1FF3F0DD0019B05EB83016D
:100EB000AB6A0A69D21AE31A934203D32B6A13EA84
:100EC0000B0F00D10C61284600F0B2FBA042B941E3
:100ED000C0F2F880B6F90830C5F83CB0002B00939A
:100EE000C9DBD6F8149003EB430A284609EBCA077E
:100EF000D7E9024800F09CFBA04271EB0801BADB85
:100F0000B8F1000FC0F2C0803A69824B9A4200F0FB
:100F1000EA807988B6F9080089B241EA0040796927
:100F2000904703460A4653EA020100F0AD80002ACA
:100F300080F2CE80E31A68EB020839F93A20C7E95B
:100F40000238002A97DB706902EB420100EBC10115
:100F5000D1E902C7634578EB070E4FEA42018ADB0D
:100F6000B6462EF8082F0BE030F93120A646002AAD
:100F70000DDB02EB420400EBC4045100D4E902C7CC
:100F80006345114478EB070700EBC104ECDA009BE2
:100F900029F83A20AEF80030B38819043FF56FAF56
:100FA0003369EFF3108272B6D3E8CF0F0121002826
:100FB000FAD1C3E8401F0028F6D1BFF35F8F4FF688
:100FC000FF74B0880023316900B2B480C1E88F3F5C
:100FD00082F310889842FFF652AF0746A94674691B
:100FE00006F1080807EB470E04EBCE03D3E9020530
:100FF000B6F90830C446002B13DBB246009704E074
:1010000034F936309446002B09DB03EB430604EB3E
:10101000C602D2E90271B84275EB0101F0DA564618
:10102000009FACF8007034F93E7024F83E30002F79
:10103000D8DAB3794D46002B3FF425AF0023B371C6
:10104000B6F9083006F1080E5A1C3BD01A467469EE
:1010500003E08646591C3FF418AF03EB430104EB51
:10106000C10047889C463F0434F93130F1D594459E
:1010700080ED028BEED0AEF80030328924F83120BA
:101080006246A6F808C0E5E739F83A2032813269AD
:10109000EFF3108172B6D2E8CF7F0120002FFAD192
:1010A000C2E8470F002FF6D1BFF35F8F7288009B15
:1010B00029F83A20738032690023C2E88F3F81F318
:1010C0001088D8E640BF05B0BDEC028BBDE8F08FBC
:1010D0002846CDE9023200F0ABFA029B039AC3180E
:1010E00042EB010829E7796908460A6902919047AD
:1010F0000028C9D00299D1E9003214E7AFF300808B
:10110000FFFFFFFFFFFFFFFF00000B4034D0002078
:1011100000800B40310E00102DE9F84F364C256948
:101120002DB1BDE8F84F0A213448FFF701BEDFF8C2
:10113000E4800321404600F069FA0326C4F80C80DD
:10114000FFF796FA4FF0504C2D4B26700344236165
:10115000DCF800300F216370636961801D834FF0FC
:101160000405A3F878504FF00505A3F890504FF010
:101170000605A3F8A8504FF007050E2108274FF6E3
:10118000FF724FF00A0EA3F8C0504FF001094FF064
:101190000C0C4FF0020B4FF0090A0D204FF00B051D
:1011A000A3F868111749A280A3F808E1A160A3F889
:1011B00048B0A3F8F0A0A3F82051A3F838C1A3F8D1
:1011C0005001A3F83090A3F86060A3F8D8701A809B
:1011D0000D4B3046C8F820700C49DC60FFF7DAFA96
:1011E00049463046FFF794FA094B0A211F64034829
:1011F000BDE8F84FFFF79CBD7C13002090E0002075
:10120000C8170020FFFF100034D00020310E00105E
:1012100000200B4000000B40004870477C1300206A
:10122000F8B59DF82070044616461D4637B900F003
:1012300007FA864265EB010100295CDB2369EFF3C5
:10124000108772B6D3E8CF1F01220029FAD1C3E874
:10125000412F0029F6D1BFF35F8FB4F902C0636953
:101260000CEB4C01BCF1000F4FEAC10203EBC101D2
:1012700038DB985A4FF0000E60802069C0E88FEF8D
:1012800087F310880698C1E90265086107984861EC
:1012900048880130C0F30E00012838BF0120488083
:1012A00040EA0C402169EFF3108572B6D1E8CF7F98
:1012B0000126002FFAD1C1E8476F002FF6D1BFF306
:1012C0005F8FA1889952A4F804C02369C3E88FEF07
:1012D00085F310880122E368217803F501538A40E1
:1012E0005A60F8BD00232269C2E88F3F87F3108857
:1012F0004FF0FF30F8BD3846F8BD00BF0146F0B5ED
:101300000069EFF3108772B6D0E8CF5F0124002D9B
:10131000FAD1C0E8454F002DF6D1BFF35F8FB1F988
:1013200002E04C690EEB4E0CBEF1000F4FEACC050B
:1013300004EBCC0C3DDB605B002648800869C0E80C
:101340008F6F87F31088BCF80200CCE902230130CC
:10135000C0F30E00012838BF0120059BACF8020045
:10136000CCF81030069B40EA0E40CCF814300B69E4
:10137000EFF3108272B6D3E8CFCF0127BCF1000F94
:10138000F9D1C3E84C7FBCF1000FF4D1BFF35F8FFC
:101390008B886353A1F804E00B69C3E88F6F82F375
:1013A00010880122CB68097803F501538A405A60FE
:1013B000F0BD00230A69C2E88F3F87F310884FF021
:1013C000FF30F0BD03464089B0EB214F37DD58694F
:1013D0000A1402EB420210B500EBC2001C69EFF3E5
:1013E000108C72B6D4E8CFEF0122BEF1000FF9D114
:1013F000C4E84E2FBEF1000FF4D1BFF35F8F4288D7
:1014000089B292B28A4207D000221B69C3E88F2FAB
:101410008CF31088002010BD42F40042428001216C
:10142000002218699971C0E88F2F8CF310881C78FE
:10143000DA68084602F50153A140596010BD00204A
:10144000704700BF407870472DE9F041861F41F199
:10145000FF35B04271EB050338BF002682B038BFBC
:10146000354604460F4600F0EBF8301A65EB0103F1
:10147000012873F1000306DA2046394602B0BDE8C0
:10148000F04100F0E7B800F0DBF8864265EB0101BF
:1014900000290ADB0021174B3246009316482B46E1
:1014A0000191FFF72BFF0028E6DB4FF0000C1348FB
:1014B000134A436A9D4204D8816AB142DCD29D42FC
:1014C000DAD11368EFF3108172B6D3E8CF8F5FF0F3
:1014D000010EB8F1000FF8D1C3E848EFB8F1000FE2
:1014E000F3D1BFF35F8F1368C3E88FCF81F3108808
:1014F00020BFDEE7F50D00107C13002000000B403C
:1015000090E0002010B5044600F09AF84FF47A738A
:101510004FF0FF3C6FF00042E4FB0301BDE81040D8
:10152000844572EB01033CBF60461146FFF78CBF58
:101530002DE9F04306460D4683B0EFF30584E4B28F
:1015400074B12F4B586A884203D2002003B0BDE823
:10155000F0839B6AB34248D3012003B0BDE8F08317
:10156000284FD7F80C9097F80080484600F060F8B4
:1015700008F1040859F828301B1A301A65EB0101EC
:10158000984271F100010DDB20BF1D4B586A854266
:10159000DBD89B6AB342DFD2281A18BF012003B000
:1015A000BDE8F08300F04CF8864265EB01010029AC
:1015B00013DB154B3846CDE9003432462B46FFF796
:1015C0009DFE011E09DD0E4B5A6A954215D89B6A95
:1015D000B34210D30B48FFF7F5FE094B586A85421A
:1015E000B3D89B6AB342B7D2D6E7401A18BF0120DE
:1015F00003B0BDE8F0839542ECD120BFEAE700BF1D
:1016000000000B407C130020F50D001010B4054BBA
:10161000054C064AA04214BF1846581C5DF8044BFE
:10162000FEF784BF141D002000800B406064011091
:101630000346416A0A46986A596A8A42FAD1704753
:10164000034B596A0A46986A596A9142FAD170471F
:1016500000000B40074A536A9942FCD8994207D1CF
:10166000044B02E05A6A914202D19A6A8242F9D34B
:10167000704700BF00000B4000EB400C4FEA8C0CA1
:101680000CF1804C0CF5803CF0B51646DCF80420DB
:10169000051FB2F5803F38BF4FF48032EDB238BF3E
:1016A000CCF80420012D2AD94FF40067254C0CF505
:1016B0004052176054F82020B2B9DCF80020012D08
:1016C00082EA461202F0E0020CF5805632602AD916
:1016D0004FF4006144F820304FF480330CF5005291
:1016E0001160CCF80430F0BD6769B7FBF2FE0EF173
:1016F000010E0EEB4E0EBEF1030EFCD2DDE701290A
:10170000D2D103240CF540521460DCF80820D20733
:10171000FBD5DCF800200B4C82EA461202F0E00216
:101720000CF5805632600122DCF800504D4005F087
:101730000305356002FA01F1DCF808200A42FBD00B
:10174000C6E700BF1C1D0020014B53F82000704766
:101750001C1D002070B4039D04682D0345EA034559
:101760001B4B002CB3FBF1F3B2FBF3F61FDB194A62
:10177000194B90420CBF4FF400424FF48042174C7B
:101780001A6003F580531A60A36832EA0303FBD1A1
:10179000212200F540530433016086601A6002681C
:1017A000002AFCDA0822C5601A6070BC7047036822
:1017B00003F03F038B42DAD18368C3F30B03B342D8
:1017C000D5D1C36803F4EE23AB42D0D1EDE700BF1F
:1017D000001BB700008005400020024000000240CE
:1017E00030B44FF080441C4B1C60E0B11B4CA3F59F
:1017F0004053DC611A4C40F0010044401C625962C5
:1018000098624FF080454FF0E061134B1548164C3D
:101810001D60846019604AB930BC4FF00042A3F5E6
:1018200080531A607047114BD861EAE74FF47A731E
:1018300003FB02F2B2F1807F2ABF6FF07F431346B1
:101840001A464FF080410A4C08482360094B426019
:1018500030BC1960704700BF00B00D40D3C007B066
:101860002D3FF84F00A00140F3FFFF0100800D4025
:101870008034002000A00D40012300EB40008000D8
:1018800000F1804000F5841041600360704700BFA4
:10189000002370B5DB8A04460D46002242E800F2C0
:1018A000520254BF1021042144F252209847864628
:1018B0002B462246F446BDE870400A214FF4817061
:1018C000604700BF0023DB8A002242E800F2520298
:1018D00001D4102118470421184700BF08B503465A
:1018E0000846191E02DB1AB140F03000FFF7D0FFA6
:1018F00040F02000FAE700BF002310B5DA8A044662
:1019000086B0002343E800F35B0254BF102104219A
:1019100045F24730904710220346052101A8984719
:10192000052802D0002006B010BD0DF1080CBCE85F
:101930000F00206001206160A260E36006B010BD6E
:10194000034AD2F82838002BFBD0BFF35F8F7047D3
:1019500000000E400021044B044ABFF35F8F43F8A0
:10196000041B9342F9D170470C080E402C080E401E
:1019700010B44FF48D704FF42A64064A064B0749A1
:101980001460D06019605368002BFCDA5DF8044BDA
:10199000704700BF0080044000A0044000B0FA007F
:1019A000704700BF08B50148FEF78CFD8464011044
:1019B00038B5054C054DAC4204D254F8043B984769
:1019C000AC42FAD338BD00BFB0630110F063011020
:1019D00010B40748074C084B084A094904601A60CC
:1019E0008B6832EA0303FBD15DF8044B704700BFFC
:1019F000002002407F3BEFEF00300240F6FFF30390
:101A000000000240044BDB6CB3F5004F03D14FF4F0
:101A10008022024BDA647047000011500020115000
:101A20004FF0E022044BD2F8881D0B43C2F8883DEA
:101A300010EE3004704700BF030330006FF06041C8
:101A4000044B054A19609368DB4333F06043FAD1D5
:101A5000704700BF003002400000024010B545F260
:101A60005320FFF72FFFBDE810400346042018471E
:101A700010B545F25320FFF725FFBDE8104003469F
:101A800001201847FEF718BE70B51749174C184EBD
:101A9000641AA510442D2A4628BF442230469200DD
:101AA00014F048F9B4F5867F1AD86B1C442BC5F1A5
:101AB0004401104A88BF012110D8B4F5867F0DD0AB
:101AC0003319480803EBC0001A605A600833834298
:101AD000FAD1CB0704D521F001010D4446F82520A9
:101AE000054B9E6070BD00BF00000010100100108B
:101AF000000000201101001000ED00E00023F0B50F
:101B00002B4C83B0C4F88430FFF732FF0122294BFD
:101B1000DA63636C012BFCD10321264A244B116349
:101B20009D6B012DFCD1052302271E46002429466A
:101B3000214A22480097FFF70DFE29463346204AE6
:101B400020480096FFF706FE3946224604201E4B29
:101B5000FFF792FD2946224630461C4BFFF78CFDCD
:101B60002246082021461A4BFFF786FD224609200F
:101B70002146174BFFF780FD224606202146134BD6
:101B8000FFF77AFD114B224607202146FFF774FD2F
:101B90000420FFF7D9FD0F4BA3FB0035AD0CE0B2DD
:101BA00029460134FFF768FE062CF8D103B0F0BDDA
:101BB0000000014000300140002F6859000005403E
:101BC000008C864700800540001BB70080D1F008DC
:101BD000006CDC0283DE1B4386B003B451FC0804B6
:101BE000CDE9020151FC0904CDE9040151EC0A04DC
:101BF000CDE9060103BCF047BDE800504EEC00C43F
:101C0000BDE800504EEC01C4BDE800504EEC02C4EB
:101C100000BD000000B5FFF7DFFF02E010FE30F46A
:101C2000F8D441EC100443EC112400EE010410EE52
:101C3000010480EE200451EC1004704700B5FFF75A
:101C4000CBFF02E010FE30F4F8D441EC100443EC7A
:101C5000112400EE010410EE210480EE200451EC6A
:101C60003004704700B5FFF7B7FF02E010FE30F414
:101C7000F8D410B541EC100443EC112451EC0404E9
:101C800053EC0524A0FB024C5FF0000EE0FB03CEFA
:101C9000E1FB02CE4CEC20440024E1FB03E444ECE5
:101CA00030E480EE200451EC5004BDE81040704751
:101CB00000B5FFF791FF02E010FE30F4F8D441ECDC
:101CC000100443EC112451EC2104A0FB01126FEA33
:101CD000820252FB100052FB12F252FB1000A0EBEA
:101CE000D07C53EC04245CFB13F153EC1524A1FBD2
:101CF000022001FB030053EC4424A2EB000050FB44
:101D00001CF24FEA111312EB017043EBE27140EA4F
:101D1000515020EA915020F0070053EC7524A0FBAD
:101D2000023C53EC752400FB03CC01FB02CC53ECCA
:101D30000424ACEB824C40EA5C70A0F1010041EC61
:101D4000400480EE200451EC7004704700B5FFF7AA
:101D500043FF02E010FE30F4F8D440EC700400EED3
:101D6000010410EE210480EE200451EC3004704791
:101D700000B5FFF731FF02E010FE30F4F8D440EC7C
:101D8000600400EE010410EE210480EE200451EC0A
:101D90003004704700B5FFF71FFF02E010FE30F47B
:101DA000F8D441EC800400EE010410EE010480EE52
:101DB000400410EE1304704700B5FFF70DFF02E07A
:101DC00010FE30F4F8D441EC800400EE010410EE73
:101DD000010480EE400410EE3304704700B5FFF7B5
:101DE000FBFE02E010FE30F4F8D441EC100443ECAA
:101DF000112400EE010410EE3004C0F300707047AF
:101E000000B5FFF7E9FE02E010FE30F4F8D443EC31
:101E1000102441EC110400EE010410EE30F48CBFEC
:101E200001200020704700BF00B5FFF7D5FE02E09B
:101E300010FE30F4F8D441EC100443EC112400EE11
:101E4000010410EE30F42CBF01200020704700BFC9
:101E500000B5FFF7C1FE02E010FE30F4F8D441EC0B
:101E6000100443EC112400EE010410EE30F48CBF9A
:101E700001200020704700BF704700BF2DE9F04FE0
:101E800083B098460F9B0F4611469A070646DDF829
:101E90003090DDF838B012D10D9B5B450FD28A46E9
:101EA0000C46ABEB03050D44524643463946202011
:101EB0000AF1010AB047AA45F6D1214600E00D46D5
:101EC0000D9B93B109EB030404EB050A01950D4644
:101ED000AAEB040214F8010D43463946B0474C45BD
:101EE000F6D129460D9B019D1D440F9B9B070CD5E8
:101EF0006C1AA34509D92A464346394620200134A5
:101F0000B047A34505F10105F5D8284603B0BDE863
:101F1000F08F00BF2DE9F04F0F9FDDF824E017F0A0
:101F2000020F0A9C9DF82C900E9DDDE90C8629D1AC
:101F3000002D66D1B44225D2202C07F0010B00F011
:101F40000A8104F1FF3C4FF0300AF44401E0202CF8
:101F500076D00134A6420CF801AFF8D8BBF1000FDF
:101F600010D0AC420ED2202C70D004F1FF3C4FF0C8
:101F7000300AF44401E0202C22D00134AC420CF8A9
:101F800001AFF8D117F0100F31D017F4806F4CD19A
:101F9000DCB9B8F1100F00F0B880B8F1020F00F012
:101FA000C28030248EF800400124B9F1000F5AD1CC
:101FB0007E0740F186802B260EF80460013418E07D
:101FC000FC0673D57C052FD42024A64201D0AC4258
:101FD0002BD1661E00F08680B8F1100F00F0C08093
:101FE000B8F1020F5BD04FF0300C0EF806C0202C79
:101FF000DBD1CDE90B57CDE909E4BDE8F04FFFF7A0
:102000003DBF17F0010B3AD0B9F1000F4CD117F0DA
:102010000C0F49D1B442A4D2202C92D1202D15D836
:1020200017F0100FB1D1E4E72024B8F1100F3FD022
:10203000B8F1020F2FD0202CDBD026460134D2E796
:10204000BBF1000F00F09D80202DB9D9FC062DD5E5
:102050007C052BD4202E00F0A280202DE4D1202559
:102060001F262C46B8E72D260EF804600134CDE972
:102070000B57CDE909E4BDE8F04FFFF7FFBEB442CE
:1020800080D2202C7FF45DAF17F0100FB1D017F481
:10209000806FCAD199E7202CABD0264601344FF08F
:1020A000620C0EF806C0C6E7013DB3E72024A0E7A6
:1020B000BE060DD4202C9CD078260EF80460013486
:1020C000B9E73E0795D520260EF80460013490E765
:1020D000202C8ED04FF0580C0EEB040686F800C072
:1020E0000134A8E7B8F1100F43D0B8F1020F7FF424
:1020F00058AF62248EF8004030248EF8014002244C
:10210000B9F1000F3FF454AFADE7BE0617D5582420
:102110008EF8004030248EF801400224B9F1000FFF
:102120003FF446AF9FE762268EF8006030264446B3
:102130008EF80160B9F1000F3FF43AAF93E77824CD
:102140008EF8004030248EF801400224B9F1000FCF
:102150003FF42EAF87E7BBF1000F7FF461AF93E749
:10216000A4F1020C3446BE0607D478260EF80C60A3
:1021700063E7BC06CBD47824BCE758260EF80C6085
:102180005BE717F0100F3FF434AF17F4806F7FF464
:1021900030AF202E06D0202D7FF447AF5FE73446C6
:1021A0001F2619E71F2617E700B9704701F084BA08
:1021B00010B1D1E900311847704700BF000000009E
:1021C0002DE9F04F9DB09DED267BDDE928A558EC6B
:1021D000177BCDE90C1283461E463A4643463846E5
:1021E00041468DED087B2A9CFFF7FCFD002840F05E
:1021F000D580384641464FF0FF32734BFFF72CFE37
:10220000002840F0CB80384641464FF0FF326FF453
:102210008013FFF7F9FD002840F0C080DDE9087861
:102220000022384641460023FFF7EEFD002840F02B
:10223000BB81CDE90A78DDE90A231F46904614F4F4
:10224000806308BF4FF0060A119358EA070340F075
:10225000BF8014F4006300F09F819FED597B00273D
:102260008DED0E7B4FF00008BA45CCBFAAEB070AF4
:102270004FF0000A4746C8BF0AF1FF3A44F48064B1
:10228000454594BF4FF00009A5EB080914F002037F
:10229000109304D0B8F1000F18BF4FF000093FB100
:1022A000DDE90A01DDE90E23FFF706FDCDE90A01AC
:1022B000DDE9080100220023FFF7A6FD30B1DDE9CA
:1022C0000A01024601F10043CDE90A239DED0A7B94
:1022D00024F40063CDE902A9DDE90CA204938DED9D
:1022E000007B33465146584600F096F98146B8F1D6
:1022F000000F4FD014F0200F4A460CBF6520452038
:1023000033465146D84709F1010487EAE77C0DF1CD
:10231000500908F1FF304B460022DFF8B080ACEBEB
:10232000E77C4FEAD77E01E0202A10D0E246A8FBE6
:102330000C71C90801EB8107ACEB47073037BAF1E4
:10234000090F8C4602F1010203F8017BECD805234A
:102350000590069300200A230C9FCDE90330CDE9B8
:10236000012E3346CDF80090224639465846FFF7F5
:10237000D1FD109B81466BB10D9BC41AA54209D9B2
:102380004A463346394620200134D847A54209F150
:102390000109F5D848461DB0BDE8F08F9DED087BDA
:1023A000DDE90C12334658468DED267BCDE92954E4
:1023B000CDF8A0A01DB0BDE8F04F00F02DB900BFD2
:1023C0000000000000000000FFFFEF7FCDCCCCCC70
:1023D000C7F30A50A0F2FF30FFF7BCFC8AA3D3E991
:1023E0000023FFF743FC8AA3D3E90023FFF716FC81
:1023F000C7F31307CDE90E0147F07F514046002295
:102400007B4B41F44011FFF71DFC6BA3D3E9002384
:10241000FFF72CFC02460B46DDE90E01FFF7FEFB41
:10242000FFF7BCFC0746FFF795FC65A3D3E9002343
:1024300080468946FFF71AFC00226E4BFFF7EEFB41
:10244000FFF7ACFC03464946404610935EA3D3E930
:102450000023FFF70BFC804610988946FFF77AFCB3
:102460005BA3D3E90023FFF701FC02460B4640467D
:102470004946FFF7E7FB02460B4680468946FFF7D1
:10248000F5FB42464B46CDE90E0140464946FFF773
:10249000C5FB0022CDE91201DDE90E01564BFFF725
:1024A0000BFC0022554BFFF7B9FB02460B46DDE95A
:1024B0000E01FFF701FC0022514BFFF7AFFB024674
:1024C0000B46DDE90E01FFF7F7FB42464B4680461F
:1024D000894600204FF08041FFF7B4FB02460B46CF
:1024E00040464946FFF79AFB02460B46DDE91201DA
:1024F000FFF7E2FB0022434BFFF790FB109B00220B
:1025000003F2FF3C4FEA0C53FFF7B0FB80468946CD
:10251000DDE90A0142464B46CDE90E89FFF774FC1E
:1025200060BB4346494607F16302C72A34BF4FF0F8
:1025300004084FF0050822057FF5A2AE0B433FF4D7
:1025400091AEDDE90A0124A3D3E90023FFF770FC73
:1025500048B1DDE90A0122A3D3E90023FFF754FCC7
:1025600000287FF47FAEBAF1000F3FF489AE119BD3
:10257000002B3FF485AE0AF1FF3A81E600221F4BA3
:1025800040464946FFF798FB0A4601460346CDE917
:102590000E12013F1146C6E79FED137B1F464FF019
:1025A00004088DED0E7B6BE608F100430A970B9350
:1025B00041E600BFAFF3008061436F63A787D23F5E
:1025C00071A379094F930A401655B5BBB16B024010
:1025D000EF39FAFE422EE63F2D431CEBE2361A3F5E
:1025E0000000000080842E41000000000000000078
:1025F0000000F83F0000E03F00002C4000002440B5
:10260000000018400000F03FFB799F501344D33F77
:10261000B3C8608B288AC63F2DE9F04F97B0DDE93B
:102620002089CDE90401DDE9224BCDE906234046AE
:1026300042464B464946DDF890A0FFF7D3FB002801
:1026400040F0C681404649464FF0FF326FF4801398
:10265000FFF7DAFB002840F01D81404649464FF065
:10266000FF32C14BFFF7F8FB002840F0E380B8A32E
:10267000D3E9002340464946FFF7EEFB002840F02F
:10268000CB80B5A3D3E9002340464946FFF7BCFB06
:10269000002840F0C1804046494600220023FFF751
:1026A000B3FB002840F0E0801AF480650D9000F044
:1026B000E980092C40F297810EAB1A460C93302129
:1026C0000023A4F109050133202B02F8011BA4EB20
:1026D000030600F03A81AB42F5D19FED9D7B8DED75
:1026E000087B49464046FFF759FB0446FFF732FB9B
:1026F00002460B4640464946FFF7A4FADDE90823A7
:10270000FFF7B4FA02460B46CDE90A23FFF758FB60
:102710000746FFF731FB02460B46DDE90A01FFF7EA
:1027200091FA02460B46CDE90A2300228F4BFFF7B0
:1027300093FB002800F0DB8001373846FFF71CFBD5
:10274000DDE90823FFF774FB08B100270134002EF0
:1027500040F0B1802046FFF7FDFA02460B464046A6
:102760004946FFF76FFA0022804B06460F46FFF7F7
:102770004BFB40B93046394600227C4BFFF76CFBDF
:10278000002800F016810C9B691E7948194410E05E
:1027900080FB0462C3EBA20303EB8302A4EB4204BD
:1027A00004F1300201351C4601F8012F002B00F026
:1027B000AB80202D4FEAE473EAD10AF00303012B2A
:1027C0001CD1BBF1000F19D00D9B002B40F0FA80FB
:1027D0001AF00C0F40F0F680AB4540F2D380202D6C
:1027E0000BD030220C996B1E0B4401355D4503F86C
:1027F000012F00F08D80202DF7D12025DDE9062363
:10280000DDE904010C9CCDE902BA01950094FFF7C3
:1028100035FB17B0BDE8F08FCDE92089DDE906234F
:10282000DDE90401CDE923BA229417B0BDE8F04FE9
:10283000FFF7C6BC4F4DCDF88CA00AF0040ABAF1E0
:10284000000F4D4C18BF2C46DDE90623DDE90401DD
:1028500020940CBF03240424CDF888B0219417B031
:10286000BDE8F04FFFF70ABB012142464B460D91F0
:1028700000200021FFF7E6F91AF4806580468946BA
:102880007FF417AF9FED367B0EAB06268DED087BF0
:102890000C9326E70424DDE90623DDE90401374D26
:1028A000CDF88CA0CDF888B02095219417B0BDE864
:1028B000F04FFFF7E3BA0C9B681EDFF8C4C0184462
:1028C0000DE0ACFB0732D20802EB8203A7EB430317
:1028D0003033092F00F8013F27D917460D46202D28
:1028E00005F1010106F1FF36EBD120254BE700226F
:1028F000DDE90A011D4BFFF787FA00287FF427AFB7
:10290000002F5BD1013722E70AF00303012B76D0B9
:10291000202D3FF473AF0D9BBBB32D2205F158035F
:102920006B4403F8202C013568E72029DDD0AEB3D5
:102930000C9B0E441D44302301E0B1422FD00131E5
:10294000202905F8013FF8D1CFE71D46C5E600BFB5
:102950000000000065CDCD410000000065CDCDC177
:102960000000000080842E41FFFFEF7F0000E03F69
:1029700067666666286501103065011038650110CC
:10298000CDCCCCCC202D3FF439AF1AF0040F0ED1B2
:102990001AF0080F3FF432AF2022BFE70E462E2276
:1029A00006F158036B4403F8202C751CEBE62B2230
:1029B000B4E7E3077FF5E7AE0134E4E6FA077FF515
:1029C000C6AE9FE70BF1FF3BAB453FF608AF9FE775
:1029D0000324DDE90623DDE904010B4DCDF88CA0CD
:1029E000CDF888B060E7094B264603EBC40393EDAE
:1029F000007B0EAB8DED087B00250C9371E6BBF1DF
:102A0000000F85D0E0E600BF34650110406501107D
:102A10002DE9F04F1C469B4D9B4BB1F1000A18BFAE
:102A200083461D602078994D9BB008BFAB46914608
:102A3000249E002800F0E7820025B04609E02A46DF
:102A40004B465146D847013501342078002800F024
:102A5000BD802528F3D10022631C1C4613F8010B0E
:102A6000A0F1200110290AD8DFE801F03D09093A58
:102A70000909090909090937093409093100A0F1CF
:102A80003003092B099440F2B0802A2800F0CD8051
:102A90002E284FF0000600F0B9800027A0F168034F
:102AA000122B29D8DFE813F005012800FE002800CA
:102AB000F40028002800280028002800280028000A
:102AC000220028002800280028002800220042F0C8
:102AD0000102C2E742F00202BFE742F00402BCE793
:102AE00042F01002B9E742F00802B6E7099B42F44F
:102AF000807258780133099367284AD824285AD914
:102B0000A0F12503422B56D8DFE813F0F60055005C
:102B1000550055005500550055005500550055000D
:102B200055005500550055005500550055005500FD
:102B300055005500550055005500550055005500ED
:102B40005500550055005500550055009E00DD000C
:102B50009E00550055005500550055005500550084
:102B600055005500550055005500550055005500BD
:102B7000550096015500550055005500550055006B
:102B80005500550055009601FF0096019E00DD009E
:102B90009E00A0F16901C9B20F290CD8012349F2A6
:102BA00041048B40234040F0DC810A2900F0E8809A
:102BB000072900F0C580099C2A464B46514601343E
:102BC000D8472078013500287FF443AF2C462A46A9
:102BD000914502D809F1FF331A464B465146002071
:102BE000D84720461BB0BDE8F08F2346002606EBF1
:102BF000860600EB460613F8010F303EA0F13001C7
:102C00000929F4D909932E287FF447AF099B42F490
:102C100080625878591CA0F13003092B40F2F280F1
:102C20002A2800F0FE80099137E7434653F8046BE9
:102C30009846099B002E587803F10103BCBF42F06F
:102C4000020276420993DEE7672800F07581472883
:102C500000F0BA81452800F0B981CDE9036208F19E
:102C60000703029723F007082A46F8E802674B4655
:102C700051465846CDE90067099CFFF7A1FA013497
:102C80000546E2E6112A001078340020791E001073
:102C9000099B58786C2800F0B081013342F48072AF
:102CA000099329E7099B42F400725878013309938C
:102CB00022E7099B5878682800F09981013342F097
:102CC0008002099318E7462808BF42F02002CDE9A8
:102CD000036208F10703029723F007082A46F8E881
:102CE00002674B4651465846CDE90067099CFFF7FD
:102CF00093FC01340546A8E6099C2A464B465146FA
:102D0000252001340135D8479FE6940740F17E81A4
:102D100058F8040B2A464B465146C0B2D8476F1CA0
:102D2000012E98BF3D4608D935443A464B46514698
:102D300020200137D847AF42F7D1099C013484E6FF
:102D4000404650F8041B002900F0D68042F02106CE
:102D500012AA94460A9203E0202B00F0D780114675
:102D600001F00F042246092C94BF303237320F296C
:102D70000CF8012B03F101034FEA1112ECD8C5E066
:102D8000C4465CF8041B0878002F40F0AF806FF059
:102D9000010858B108F101080B46884401E0434599
:102DA00003D013F8014F002CF9D15B1A12F4806E96
:102DB00002D0BB4228BF3B4612F002020A9200F04A
:102DC0003E81002800F0BB808846BEF1000F00F075
:102DD00000812A4664462F440B9307E04B46514638
:102DE000D84718F8010F013510B12A46AF42F5D186
:102DF000A4460B9B0A9A002A40F0A180E046099C59
:102E0000013422E6002707EB870700EB4700A0F11B
:102E1000300711F8010FA0F13003092BF3D9099104
:102E20003CE64346099953F8047B8878023198467A
:102E3000099127EAE77731E6622800F08781582870
:102E400000F08D8112F4806300F0738122F0110E86
:102E50001EF4007C40F00F811EF4807040F0D7819A
:102E60001EF0400F424640F05E811EF0800F00F0E1
:102E7000898232F9041B904681EAE17CACEBE17C6B
:102E80001FFA8CFCCA0F002900F0F481634612A9D6
:102E90008C46CDE90B28B74C0A9101E0202810D0D0
:102EA0009846A4FB0312D20802EB8201A3EB410176
:102EB0003031B8F1090F134600F101000CF8011B85
:102EC000ECD8DDE90B28CDE9056ECDE901020497C8
:102ED0000A9B2A4600930A2303934B4651465846C1
:102EE000FFF718F8099C05460134AEE500283FF4C9
:102EF0005DAF07F1FF384DE722F0100612F4806154
:102F000046F021063FF424AF12AA0A9201930A9BCD
:102F10008046009308231020059300232A46CDE91C
:102F2000023051464B46584606960497099CFEF7D8
:102F3000F1FF0134054688E542F400628DE69E42C9
:102F40002F467FF65BAF64463544ED1A3A464B4652
:102F5000514620200137D847AF42F7D1A446E0467A
:102F60004DE7782840F0218112F4806300F021823F
:102F700022F00D0C10220B921CF4007040F0FC802B
:102F80001CF4807140F0B981404650F8042B1CF0CD
:102F9000400F804600F0AC81D2B2002A40F011818F
:102FA0002CF0100C002B00F00C81114612AB0A9390
:102FB0000B9BCDE9056C0497039301912A460A9B6C
:102FC00000930023029388E742F4006242F020025B
:102FD00043E61C4667462A464B465146D84718F8F2
:102FE000010F01350028F6D12346BC4602E7987848
:102FF000023342F0C00209937EE59878023342F42E
:103000004072099378E504460246E1E5012E40F25C
:10301000C6812F466B1E9C193A464B4651462020CE
:103020000137D847A742F7D13A46354458F8040B40
:103030004B465146C0B2D847099C013405E59E4233
:1030400040F2B0816446CDE90BE106EB0508A8EB40
:1030500003082A464B46514620200135D8474545AE
:10306000F7D1DDE90BE10878A446731C00287FF452
:10307000ABAEE046C3E608F1070222F00702904635
:10308000526858F8081BD40F51EA020054D1002BA3
:1030900040F08081194612AA0F954FF0000C15469A
:1030A000CDE90B48CDE90D6732480A9202E0BCF148
:1030B000200F2DD05A1842F10002A0FB027828F010
:1030C000030707EB9807D21B1E469B1A61F1000706
:1030D0000C464FF0CC3101FB03F100FB0711A3FBC1
:1030E00000731944052307F00108A8FB03389B1857
:1030F0000A2E03F130034FEA570774F1000405F874
:10310000013B0CF1010C47EAC1734FEA5101CED2E9
:103110000F9DDDE90B48DDE90D67CDE9056ECDE9D1
:1031200001C40497D4E652F8041BC9B290468C46F9
:10313000A8E622F0100E8BE6002A0B4601DB1146B2
:10314000A9E74B4262EB42021146A4E712F4806306
:1031500000F0E78022F00D0C02220B920CE712F433
:10316000806300F0248122F00D0242F0200C102236
:103170000B9201E7CDCCCCCC08F1070222F007027C
:103180009046526858F8081B10460A4378D12CF034
:10319000100C002B74D0002412AB0A930B9BCDE9CA
:1031A000056C04970393019408E76F2840F00D81A4
:1031B00012F4806322F00C0C40F0018108220B9283
:1031C000DAE61CF0200F14BF4123612312A88646C3
:1031D0000A90CDE90C860B98A3F10A0402E020299D
:1031E00012D04246B2FBF0F800FB1826F3B2092ECB
:1031F00003F130068ABF1B19F3B2DBB282420EF82C
:10320000013B01F10101EAD2DDE90C86D0E641463D
:1032100051F8040BC20F002800F0AE8080EAE07382
:10322000A3EBE07312A8CDE90B26DFF8C4810A9066
:1032300002E0BCF1200F0FD01E46A8FB0342D208CB
:1032400002EB8204A3EB44043034092E13460CF144
:10325000010C00F8014BECD8DDE90B260A9BCDE907
:1032600001C200930A232A468846CDE9056E0497D9
:10327000039332E6002B3FF40AAE12AB0A9322E628
:103280001CF0200F14BF4123612312AA0A3BCDE991
:103290000C86CDE90E75CDF844B0002490460E465C
:1032A00005469B460B9F0A92CDF840C003E0202CB8
:1032B00017D006460D46294630463A46002313F0FD
:1032C0004BF8D2B2092A02F1300388BF02EB0B039C
:1032D000BE42DBB275F1000508F8013B04F10104C0
:1032E000E5D2DDE90C86DDE90E75DDE910CB55E7A9
:1032F0001CF0800F18BF92B24FE6414651F8042BE4
:10330000A2B92CF0100C8BB112AB0A930B9B2A467E
:1033100003930A9B8846CDE9056C049701900093BE
:103320004FE622F00C0C02220B9225E61CF0200F37
:1033300014BF4123612312ACA6460A94CDE90C6761
:103340000B9CA3F10A0802E0202812D03A46B2FBF7
:10335000F4F704FB1726F3B2092E03F130068ABFF7
:103360004344F3B2DBB2A2420EF8013B00F101008C
:10337000EAD2DDE90C67C9E7002B3FF453AF12AB8B
:103380000A936BE752F8041B81EAE17C9046ACEBB0
:10339000E17C77E512AB4FF0000C0A93BDE62A46BC
:1033A000013543E6013300287FF40EAD61E642F0BB
:1033B000200222F00C0C102200230B92DCE5964632
:1033C00008220B922EF00D0CD6E5692822F0100E83
:1033D00004D112F480633FF43BAD37E522F01C0CBE
:1033E00012F480634FF00A020B92EBD1C4E500BFE8
:1033F000CDCCCCCC70B594461E4605460C4684B068
:103400004FF0FF32634602A900960348CDE902540B
:10341000FFF7FEFA04B070BDB121001010B5094BE2
:1034200084B01C684CB1034600914FF0FF3203A9F1
:103430000548A047012004B010BD00F07FF92046E8
:1034400004B010BD78340020A921001000BEFDE7B3
:1034500008B5FFF7FBFF00BF38B5064D064CFEF779
:10346000A7FAAC4204D254F8043B9847AC42FAD3D2
:1034700038BD00BFF8630110F0630110036808460F
:10348000114618472DE9F04F437D8246884617467E
:1034900081B0002B47D0002A24DD002401252046DE
:1034A000DFF894904E1E04B3737806F1010B0A2BDB
:1034B00026D02B465E46BB4204F1010405F101050E
:1034C000F1DB874204DD391ADAF8003040449847CE
:1034D000B84418F8013CA3F10D03B3FA83F35B0978
:1034E0008AF8143001B0BDE8F08F737806F1010B53
:1034F0000A2BDED19AF8143063B15E462B46DAE728
:1035000033780D2BF9D0A04204DA211ADAF8003012
:10351000404498474846DAF80030022198475E4612
:1035200028462B46C7E711464046DAF8003001B07E
:10353000BDE8F04F184700BF906501100B682DE9FA
:10354000F041802B0D46064605D05A1C2B442A60BC
:103550001E71BDE8F0810F4B1C68A4B10E4F01F144
:10356000040801E0246974B12368002BFAD03B6899
:103570000BB1A342F6D1204641462A68FFF782FFED
:103580002469002CF0D1002301222B442A601E71F3
:10359000BDE8F081F02B0020F82B00202DE9F0474A
:1035A00082B00D46924699460746FEF749F84FF01D
:1035B000FF366FF000442F4A821841F10003964213
:1035C00074EB03013CBF324623462B4812F0D0FE79
:1035D0006B1C804603D1384612F03CFE0546274B53
:1035E000274E1C68274BB9F1000F18BF1E46B4B117
:1035F000BAF1000F1AD1DFF8909001E0246974B19C
:103600002368002BFAD0D9F800300BB1A342F5D1D2
:1036100020462A463946B0472469002CF0D1B8F13B
:10362000000F1FD1284602B0BDE8F0874FF00A0A0C
:10363000DFF8549002E02469002CF0D02368002BBE
:10364000F9D0D9F800300BB1A342F4D120462A4674
:103650003946B047204601220DF107018DF807A039
:10366000B047E8E7044812F07BFE284602B0BDE808
:10367000F08700BF40420F0030140020F02B0020E4
:103680007D34001085340010F82B0020084A1368A0
:1036900023B90AE003F110021B6933B19842F9D152
:1036A00029B9036913600161704701B11060704767
:1036B000F02B002000F0E2BAF0B583B006468DF89A
:1036C0000700FDF7BDFF4FF0FF356FF00044174ACC
:1036D000821841F10003954274EB03013CBF23467D
:1036E0002A46134812F044FE124B07461C689CB150
:1036F000114D01E024697CB12368002BFAD02B68BE
:103700000BB1A342F6D1204601220DF10701FFF7CC
:10371000B9FE2469002CEFD117B9304603B0F0BDD3
:10372000034812F01DFE304603B0F0BD40420F00CA
:1037300030140020F02B0020F82B002038B5044670
:1037400012F088FD012305461A4620462946FFF758
:1037500025FF084B1C682CB163682BB1984724697E
:10376000002CF9D1284638BD2469002CF4D1284614
:1037700038BD00BFF02B00202DE9F041A2B0044677
:103780000D46FDF75DFF4FF0FF376FF00046274A0B
:10379000821841F10003974276EB03013CBF3A46A1
:1037A0003346234812F0E4FD00262B460746224606
:1037B000204801A90196FFF71DFE019B06467BB933
:1037C0001D4B1C682CB1636843B198472469002CD9
:1037D000F9D10FBB304622B0BDE8F0812469F1E792
:1037E000DFF85480D8F80050EDB1144C01E02D6999
:1037F00075B12B68002BFAD023680BB1AB42F6D120
:103800002846019A02A9FFF73DFE2D69002DF0D14F
:10381000D8F800400195D5E7054812F0A1FD3046E3
:1038200022B0BDE8F0810195D3E700BF40420F0010
:10383000301400203D350010F02B0020F82B002024
:103840000FB400B583B004A951F8040B0191FFF740
:1038500093FF03B05DF804EB04B07047704700BFFE
:103860000022014B1A7070470FE100204B79FF2BAB
:103870000BD1887948B9CB79012B07D1082A05D912
:10388000034B8A7809201A7070470020704700BFE8
:103890000FE1002001207047012901D0012070476D
:1038A00008B5104B91881B78994201D0002008BDC3
:1038B0005378012B08D0022BF8D10021642208464E
:1038C000FDF78EFF012008BD5188CB054BBF4A0A8A
:1038D0004A0A10464FF0FF3002F0010201F07F016A
:1038E000FDF7FCFF0FE10020004870475C66011007
:1038F000012907D15378012B02D19388072B03D0DC
:1039000000207047012070471146A623014A01F0AC
:1039100063BA00BFB46501100346012201481A7062
:10392000704700BF9465011008B50B68B3F5966F3A
:1039300000D008BD00224FF0FF301146FDF7CEFF4A
:10394000024A034B10601960704700BF081D002039
:103950000C1D0020184B70B51A68002A28D0EFF310
:10396000108172B6D2E8CF4F0120002CFAD1C2E804
:10397000440F002CF6D1BFF35F8F00220F4C186864
:1039800059602270C0E88F2F81F310880024002531
:103990000B4E3078FCF7D2FE20B9002400252046DB
:1039A000294670BD3078FCF7D9FE2046294670BD07
:1039B0004FF47A740025EBE72CD0002012E10020B0
:1039C00010E10020014B1878FCF7C8BE10E1002080
:1039D00038B5044600200D4601F02AFBA8B30020AC
:1039E00001F03CFB88B3FDF72BFE4FF0FF3E6FF07C
:1039F000004C174A821841F1000396457CEB030105
:103A00003CBF72466346134812F0B2FCE8B1002096
:103A100001F00EFB58B900214FF0FF3000F020FDFF
:103A20006FF002040B4812F09BFC204638BD0020CA
:103A300001F014FB0028EED021462A46002001F0B8
:103A400019FB04460028EDD1EAE76FF00204ECE729
:103A500040420F0094E0002008B5FDF7F1FD4FF063
:103A6000FF3E6FF0004C0F4A821841F1000396456B
:103A70007CEB03013CBF724663460B4812F078FCB6
:103A800070B14FF0FF30002100F0EAFC002001F09F
:103A900037FB0028F5D1BDE80840034812F060BCB0
:103AA00008BD00BF40420F0094E000202DE9F8431C
:103AB00007460E46FDF7C4FD4FF0FF356FF000449A
:103AC000344A821841F10003954274EB03013CBF74
:103AD0002A462346304812F04BFC08B9BDE8F8836B
:103AE000002001F0A5FA002849D0002E42DD002573
:103AF000DFF8A880DFF8A89013E00246002001F06C
:103B000045FB002104464FF0FF3000F0A9FC0020E7
:103B100001F0F6FAFDF794FDC8E900012544AE4234
:103B200028DD002001F054FB731B9842A8BF184603
:103B3000791904460028E0D101464FF0FF3000F02B
:103B40008FFC204601F0DCFA204601F071FA88B1C2
:103B5000204601F03DFB0028E1D1FDF771FDD8F8CA
:103B60000030D8F8042013EB090342F1000283422D
:103B70008A41D4D20848BDE8F84312F0F1BB0020D6
:103B80000021064BC3E90001BDE8F843024812F0EA
:103B9000E7BB00BF40420F0094E00020C8160020A1
:103BA00020A1070030B5002185B02E4812F0F4FBAB
:103BB000F0B92D4B1A68CAB1EFF3108172B6D2E892
:103BC000CF5F0124002DFAD1C2E8454F002DF6D178
:103BD000BFF35F8F254C1D6822785960D3B2012254
:103BE0002270C5E88F0F81F31088CBB105B030BDCE
:103BF00000214FF0FF3000F033FC002001F02EFADE
:103C00000446184812F0ACFB002CEFD0184B1B6890
:103C1000002BEBD0174A106805B0BDE830401847BC
:103C2000FDF7FAFA0446FDF70BFD4FF0FF3C6FF08D
:103C3000004510F57A7241F10003944575EB0301DC
:103C400038BF2B464FF000014FF0010520460A4CCB
:103C500038BF6246CDE901150094FDF7E1FA05B0E1
:103C600030BD00BF94E000202CD0002012E10020E5
:103C7000081D00200C1D0020553900104FF0504346
:103C800030B585B01C68FDF7C7FAFDF7DBFBA04235
:103C900002D0002005B030BD00212A4B08461B7819
:103CA00001F064FD28480368002B47D00120FDF790
:103CB0001BF80346254C2649C0B22370FCF76AFD69
:103CC00020780121FCF724FD0E20FCF753FD40BBBA
:103CD000204B0125C3E90000FDF79EFA0446FDF7DD
:103CE000AFFC4FF0FF3E6FF0004C10F57A7241F1DF
:103CF000000396457CEB03014FF000012046164C73
:103D00003CBF72466346CDE901150094FDF788FA81
:103D10000028BEDB01211148FFF7B8FC012005B0E7
:103D200030BD0120FCF7B0FC01460A48FDF75AF807
:103D300000220E200A49FCF75DFDEBE7FDF728F8AD
:103D4000B4E700BF6804051094E0002010E10020F3
:103D5000A53B00102CD000205539001094130020F2
:103D6000C539001000487047386701100048704797
:103D7000E466011038B5184B04461A780AB344B902
:103D800040F209424FF44173144D6A8013482B806E
:103D900038BD052C1AD8124B104D53F82410284664
:103DA0000023013903E0132B20F8022F10D011F863
:103DB000012F0133002AF6D1DBB25B0043F44073DC
:103DC000E4E71121184600F02DF8D8E7002038BDAF
:103DD0004FF44A73DAE700BFDCE000200827002038
:103DE000CC66011000B545F247308BB0FDF76AFD97
:103DF00001220346092101A89847DDE9033204495D
:103E000012BA1BBAC1E900230BB05DF804FB00BF76
:103E100084E000200346024A03CA186059607047D4
:103E200084E00020012901F1FF3300F0B3805D49F7
:103E300091F800C04FEA2C12BCF19F0F8CBF3732B3
:103E40003032012B027000F0A8800A7802F00F02D5
:103E5000092A8CBF37323032022B427000F09D802D
:103E60004A784FEA221C9F2A8CBF0CF1370C0CF1C8
:103E7000300C032B80F802C000F08F8002F00F029C
:103E8000092A8CBF37323032042BC27000F0858093
:103E90008A784FEA221C9F2A8CBF0CF1370C0CF158
:103EA000300C052B80F804C077D002F00F02092AED
:103EB0008CBF37323032062B42716ED0CA784FEA4F
:103EC000221C9F2A8CBF0CF1370C0CF1300C072BF5
:103ED00080F806C061D002F00F02092A8CBF373289
:103EE0003032082BC27158D00A794FEA221C9F2A1F
:103EF0008CBF0CF1370C0CF1300C092B80F808C08A
:103F00004BD002F00F02092A8CBF373230320A2B15
:103F1000427242D04A794FEA221C9F2A8CBF0CF190
:103F2000370C0CF1300C0B2B80F80AC035D002F0A6
:103F30000F02092A8CBF373230320C2BC2722CD0C0
:103F40008A794FEA221C9F2A8CBF0CF1370C0CF1A6
:103F5000300C0D2B80F80CC01FD002F00F02092A84
:103F60008CBF373230320E2B427316D0CA79111102
:103F70009F2A8CBF373130310F2B81730DD002F067
:103F80000F02092A94BF30323732102BC27318BF88
:103F9000103002D0002303707047184400230370D0
:103FA000704700BF84E00020F8B500F037F90C231B
:103FB00040271A4D1A4CAB67FF220E201949FCF717
:103FC00019FC3A460021204611F0AAFF164B0126A3
:103FD000A36280210023154A6670A260843A278379
:103FE00027876184C2F88430C2F88030636084F827
:103FF000213084F83B3063620D4BE360E36212F0E2
:10400000C3F94FF000544FF480320A490A4B2E6432
:104010003046EC64C5F89010DA64F8BD0000115029
:1040200050300020B5050020800010508400105052
:104030000001105010D001000020115001210E206D
:10404000FCF766BB00220248114600F007B900BF2A
:1040500070300020044B197021B14FF40032034B33
:10406000C3F89020704700BF07E1002000201150E6
:104070000B785B0602D14B78052B00D070474B883C
:10408000014ADBB21360704700001150CB782DE974
:10409000F04103F0030EBEF1010FC3F301005ED047
:1040A000002791F802C0354C0CF07F025600898839
:1040B00006EBDC1304EB43134FEADC15C1F30A01F2
:1040C000D87685F0010083F802C019835870DF703C
:1040D0009DBB04232A4803EBC20304EB821C03EBC1
:1040E0000008CCF808801F5092B3264BD20013442E
:1040F000CCF80430244B3F311A6821F03F01BEF167
:10410000020F08BF490011441960204B771904EBD6
:1041100047179942FA602DD82E4404EB4613D97EF6
:1041200082F0A04282F480125B6842EA816242F02F
:1041300000421A600120BDE8F081114813B200EB83
:10414000C20804EB821CCCF8288040F833704AB9CE
:1041500000220F4904EB4513D9605A60EAE70020BA
:10416000BDE8F081D20002F1A04202F58012CCF845
:104170002420BFE7FDF716FCFA68CDE75030002099
:10418000800010500400105024D00020FF0F105069
:104190000001105012F0F8B88C4608B511460748D7
:1041A0001A460CF07F034FEADC1C0CEB430C00EBCF
:1041B0004C1000F053F8012008BD00BF5030002023
:1041C00011F07F020AD0C909074B01EB420003EB53
:1041D00040104FF40062002112F0C6B8034BC90929
:1041E000C1F102009866EFE7503000200020115026
:1041F00011F07F0300D17047002210B4C809064CAB
:1042000000EB430004EB40136FF4006118465DF8C7
:10421000044BDA7012F0A8B8503000204FF08052F2
:1042200009480A4908B50A4B02600A609968C943FF
:1042300011F08051FAD14FF48052064811F070FE0F
:104240000922054B5A6708BD002002400030024099
:1042500000000240000010500000115000234FF0F9
:10426000010C10B580F81AC08282C3820161044635
:1042700012F06EF820B14FF40032074BC3F89020D3
:10428000204612F059F810B10123237710BD2046C3
:10429000BDE8104012F058B8002011502DE9F0414F
:1042A00000241D4E054623463278DFF878801B4FE8
:1042B0000DE03B6813EB441325D0DB682846984794
:1042C00032780134E4B2511CA142234606DBA242FB
:1042D000A3EB0203EDD808EB4313EEE7104C542296
:1042E0000021204611F01CFE4FF0FF33251D6360B6
:1042F000C5E90133EB6004F114002022BDE8F04170
:10430000FF2111F00DBE4FF0E023D3F8F03DDB07A5
:1043100000D500BEBDE8F08106E10020EC160020CB
:10432000F4170020A8670110704700BF704700BF56
:104330000020704700207047704700BF704700BFE3
:10434000704700BF704700BF024B5878003818BF55
:1043500001207047F4170020024B1878C0F380004A
:10436000704700BFF41700202DE9F047DFF8E8A000
:104370009AF80030FF2B02D00120BDE8F0870E46EE
:1043800000293FD00021542207462A4811F0C8FDD9
:104390000022294C294B20461A70FCF7F9FC284BC7
:1043A000284D1C60284C04F11400FCF70DFD20463C
:1043B00001F0D2FD254B1C60254B63B32846FFF767
:1043C000ABFA244B2A7818600024DFF8909023463B
:1043D000DFF880800EE0D8F8003013EB441311D0E2
:1043E0005B687BB198472A780134E4B2511CA14242
:1043F000234612DBA242EED89B1A09EB43135B68FB
:10440000002BEFD14FF0E023D3F8F03DDB0700D5D0
:1044100000BE0020B1E72A78D6E7314638468AF850
:104420000070FFF7C1FD0028ECD03846FFF706FE0C
:10443000A2E700BFF4170020EC17002008E10020DD
:104440004818002006E10020AC1300204C18002082
:1044500019390010EC160020C8130020A8670110BD
:104460002DE9F04FDFF8D4928BB099F80030FF2B94
:1044700000F0ED80AB4CAC4DDFF8BCA2DFF8C0B271
:1044800026687369EFF3108272B6D3E8CF0F01216B
:104490000028FAD1C3E8401F0028F6D1BFF35F8F90
:1044A000B261304607A901F095FB00237269C2E8AA
:1044B0008F3FB36983F31088002800F0C8809DF80F
:1044C0001D30013B072B00F29183DFE803F0A3AD21
:1044D00091998A350A04089B002BD1D009989847F6
:1044E000CEE79DF8201001F07F0605EB460000EBBB
:1044F000D11090F834206FF3000280F8342090F847
:1045000034206FF3820280F83420002E00F0A28065
:10451000037D9AF80020934280F08F80834A1268CE
:1045200012EB431300F08C809E699DF82120099BBB
:104530009DF81C00B047A3E79BF80030002B7FD00C
:104540009BF80030013BDBB28BF800309BF8003069
:1045500003F0FF00002B93D1734F9DF81C803B7834
:1045600043F001033B7097F8343060F3000387F8A1
:10457000343097F8343060F3820387F8343097F89A
:10458000353060F3000387F8353097F8353060F345
:10459000820387F8353000F07FFC9DF8203003F06F
:1045A0006002602A0BD0402A61D003F01F03012B68
:1045B00000F0C880022B00F08780002B63D04FF002
:1045C000E023D3F8F03DDE0700D500BE9DF81C00C7
:1045D0000021FFF7F5FD80219DF81C00FFF7F0FD9D
:1045E0004EE72B78D9077FF54BAFFFF7ABFE47E7D8
:1045F000EB78DA077FF544AF0898FFF797FE3FE7BF
:104600002B78D8077FF53CAF2878C0F3C000FFF7C0
:1046100097FE35E79DF81C00FFF740FE00F032FCE6
:104620009DF82030AB702BE79DF81C00FFF736FE9D
:1046300000F028FCFFF782FE22E7501C984211DAB6
:104640004FF0E023D3F8F03DDC0700D500BE0BB0FF
:10465000BDE8F08F099B9DF821209DF81C0000F01B
:104660002FFC0DE79B1A324A02EB43135CE73148FB
:1046700000F012FC4046012108AAFFF739F9002892
:104680007FF4FEAEA2E7202A00F09281002A96D1A4
:104690009DF82130092B92D801A252F823F000BFD7
:1046A0004F49001033490010BF45001071490010F8
:1046B000BF45001019490010C3480010BF45001045
:1046C000AD480010D34700109DF8241011F0700F72
:1046D0007FF475AF01F07F0607EB4600164B00EB49
:1046E000D1101B78007D7600019698424FEAD116D2
:1046F00000965DD35E1C8642C0F26C81C01A0C4BE2
:1047000003EB4016002A00F06981706900F0C4FBD9
:1047100040460121736908AA984700287FF4B0AE8B
:1047200054E700BF4C180020F4170020EC160020BE
:10473000A8670110F138001006E10020C81300201E
:1047400008E100209DF824300F2B3FF63FAFB14A1F
:104750003B441B791278934235D3511C9942FFF6A2
:1047600035AFAD4E9B1A06EB4316706900F094FB13
:1047700001214046736908AA984700287FF480AE5B
:104780009DF8203013F060067FF420AF9DF82130B3
:104790000A3B012B3FF61AAF00F07EFB9DF821305B
:1047A0000A2B00F0F881404608A900F0FBFA67E602
:1047B0009A4B1B6803EB4016002A00F00F81002E75
:1047C0003FF404AFA1E7954A166816EB4316CCD127
:1047D000FCE67B789DF822609E4200F051817B7858
:1047E000002B40F0C4817E70002E00F04781701EC7
:1047F000C0B2FFF7BBFA0346002800F0638142789D
:10480000022A40F05F81C1793878C1F34012120169
:10481000C1F3801120F0300042EA411202433A70A5
:104820005A8803F109069A180192CDF80880019B75
:10483000B34240F2AB8173780B2B00F0B6810121BB
:10484000042B40F03F814FF00008019B03919A1B1D
:10485000704B31461B7892B2CDF800801DE06F4B53
:104860001E6816EB481600F02D8133690298CDE9D9
:1048700004129847DDE90412082808F1010302D95F
:10488000824280F002815FFA83F8624BCDF80080AB
:104890001B78581C804500F3158100989845A0EBC3
:1048A0000303DCD35C4800EB4316DEE77B7840462D
:1048B0008DF81A300DF11A02012308A900F08CFAC4
:1048C000DEE5BDF82200030A013B020AC0B20E2B4E
:1048D0003FF67CAE01A151F823F000BFF54A00106D
:1048E0008D490010314B0010CD450010CD45001012
:1048F000134B00108D490010CD450010CD45001020
:10490000CD450010CD450010CD450010CD4500101F
:10491000CD450010E74A001008A800F0C3FA404651
:104920009DF82210FFF78EFB3B7843F002033B70AB
:10493000A6E5BDF82230012B7FF448AE3B78404617
:104940006FF3C30308A93B7000F02CFA98E54046CA
:104950003B789A0802F00202C3F340131343ADF808
:104960001A300DF11A02022308A900F035FA87E582
:10497000BDF82230012B7FF429AE3B78404643F04E
:10498000080308A93B7000F00DFA79E5022A00F04F
:104990002681FFF7CFFC024600283FF417AE4046C1
:1049A000538808A900F018FA00287FF469AD0DE6D5
:1049B0009DF824300F2B3FF609AE164A3B441B7975
:1049C000127893421DD2154A166816EB43167FF4EF
:1049D0009CAEFBE5002A7FF4F9AD00269DF821206E
:1049E00002F0FD03012B1BD0002A7FF4E8AD019BF0
:1049F000009A3B44134493F834304046C3F34003D9
:104A0000ADE7511C9942FFF6E1AD034E9B1A06EB50
:104A100043167AE606E10020A8670110EC16002094
:104A2000BDF82230B3B9012A00F08A8099F800005D
:104A3000FFF7C6FB019B009A3B44134493F83420D4
:104A400042F0020283F8342093F8342042F001024D
:104A500083F83420002E3FF413AD706900F01CFA87
:104A60007369012108AA40469847002000F014FA13
:104A700097F83530DF073FF503AD94E6FFF75EFCAE
:104A8000404608A900F08EF9FAE433460E46039931
:104A9000012900F09E80002900F08C80002396F808
:104AA00002E005E082F80480DAB2914240F28280AE
:104AB0000EEB030257FA82F292F804C00133BCF104
:104AC000FF0FEFD04FF0E023D3F8F03DDA0700D529
:104AD00000BE4FF0E023D3F8F03DDB0700D500BE69
:104AE00000237B7072E5FEF7FFFE024600287FF48C
:104AF00056AF6BE5FFF736F9024600283FF45FAD8D
:104B00004046122308A900F067F900287FF4B8ACEA
:104B10005CE5FFF70DFC024600283FF457AD404628
:104B2000137808A900F058F900287FF4A9AC4DE5E6
:104B3000BDF82410FFF71EF902460028EFD145E525
:104B400099F800000293FFF753FB019A009B3A4447
:104B50001A4492F83410029B63F3410182F8341036
:104B600092F8341063F3000182F8341072E70021E8
:104B70004046FFF76FFA4046FFF70CFBBB78404614
:104B80000093FFF78BFB009BBB702CE6DDF80880E1
:104B9000FFF7D2FB74E74046012308A90DF11A0282
:104BA0008DF81A6000F018F96AE43378F1781E4441
:104BB000737845E60246434631460644104800F005
:104BC0007DFE104B009A1B7801339342BFF62FAE47
:104BD00078E71A690C4B9A4208BF02215EE7FFF79B
:104BE000C5F8024600287FF4DAAEE8E44FF0E0238F
:104BF000D3F8F03DDB077FF543AC00BE40E400BFD7
:104C00000818002006E10020D15200102DE9F84FCD
:104C1000DDF82880002A3FD00C461E4615464FF08E
:104C2000000B1F4FDFF87C9017E0204699F8021028
:104C300000F012FEF8B121465046FFF727FA08B3FC
:104C4000A3780BF1010BDA0916BF0B9A88F8003034
:104C500013702378AB451C441ED06378052B11D10B
:104C6000E17801F00301B1420CD1A37897F800A0DC
:104C700013F0700FD9D04FF0E023D3F8F03DDA07EE
:104C800000D500BE4FF0E023D3F8F03DDB0700D5A0
:104C900000BE0020BDE8F88F0120BDE8F88F00BFFE
:104CA000C8130020F417002038B50E4B1D788B7800
:104CB00013F0700F08D04FF0E023D3F8F03DDB077E
:104CC00000D500BE002038BD074B0C460846997839
:104CD00000F0C2FD0028EED021462846BDE838404D
:104CE000FFF7D4B9C8130020F41700200B46064A7A
:104CF00006481168DA09343203F07F0302EB4303FC
:104D0000184400F063BD00BF48180020F4170020CD
:104D10000B46064A06481168DA09343203F07F036D
:104D200002EB4303184400F07BBD00BF481800208D
:104D3000F417002010B5194C01F07F0E04EB4E045F
:104D400004EBD11494F834C015481CF0010F04F1A1
:104D50003004007808D04FF0E023D3F8F03DDA07B4
:104D600000D500BE002010BD94F804C04CF0010C2A
:104D700084F804C0FFF710FA0028F4D14FF0E021C6
:104D8000227960F300022271227960F3820222719B
:104D9000D1F8F03DDB07E5D5E3E700BFF4170020CD
:104DA000C813002030B50B4C8C46A6460546086853
:104DB00049680023AEE803009CF800102846C94368
:104DC000C4E90233BDE830401A4601F08001FFF724
:104DD000B1BF00BFB41700202DE9F041274F4FF0BD
:104DE0000008BE468C46064608684968BA60AEE8C8
:104DF0000300A7F80E801546BCF80620934228BF92
:104E00001346BB819AB11C462BB3DDB197F9003034
:104E1000402C28BF4024002B28DB41462346304647
:104E2000174AFFF787FF68B10120BDE8F0819CF8C1
:104E300000101346C943304601F08001FFF77AFFA6
:104E40000028F1D14FF0E023D3F8F03DDB0700D587
:104E500000BE0020E9E71A46397801F080012346B8
:104E60003046FFF767FF0028DED1EBE722462946F0
:104E7000034810F05FFF8021014AF0E7B4170020DB
:104E8000741700200022034BC3E90022C3E9022269
:104E90001A617047B4170020014B1861704700BFBA
:104EA000B417002030B40246044C002523460068A5
:104EB0005168C4E9025530BC03C37047B4170020E1
:104EC00070B53C4CC90922780646B1EBD21F1D468D
:104ED00082B017D053B14FF0E023D3F8F03DDB0799
:104EE00002D4002002B070BD00BEFAE72146FFF7F1
:104EF000BFF823691BB122460321304698470120A1
:104F000002B070BD94F90030002B06DBA0680028C9
:104F1000E7D02A46284910F00DFFE089A168E38810
:104F2000284480B229448342E081A16016D03F2DFD
:104F300014D9A28994F90040131A9BB2402B28BFC0
:104F40004023002C26DB90424FF0000130D01A4A5B
:104F50003046FFF7EFFE0028D1D1BCE7236923B12B
:104F600002213046134A984758B121780023C9439B
:104F700030461A4601F08001FFF7DCFE0028BED162
:104F8000A9E701463046FFF71BF980213046FFF7BD
:104F900017F9B4E7904208D01A460748019310F079
:104FA000C9FE8021044A019BD2E780210022CFE77D
:104FB0000A46CDE7B4170020741700202DE9F04110
:104FC0000446FFF7C1F908B9BDE8F081FFF7C4F95D
:104FD00007460028F8D1C822134B02FB0436F178AB
:104FE0000029F1D006F11005284600F0E1FD3F2828
:104FF000EAD93846F178FFF779FE0028E4D0284650
:1050000000F0D6FD3F2809D9084A3846F17802EB6E
:10501000C4124023BDE8F041FFF78CBE3846F1785A
:10502000BDE8F041FFF774BE38140020F0160020F0
:1050300010B50446FFF788F908B9002010BDFFF746
:105040008BF90028F9D1C822034B02FB04331879ED
:1050500000F0010010BD00BF38140020C82108B5C1
:10506000102301FB0030024A104400F087FD08BD08
:10507000381400202DE9F8434FF6FF734FF0C808AD
:1050800010249A4228BF1A4618FB00441A4F0646BD
:105090003C44204692B200F0E7FD0546FFF754F984
:1050A00010B92846BDE8F883FFF756F98146002875
:1050B000F7D108FB0677FB78002BF2D0204600F0F2
:1050C00077FD3F28EDD94846F978FFF70FFE002815
:1050D000E7D0204600F06CFD3F2808D9074A484633
:1050E0004023F97802EBC612FFF724FED9E74846C1
:1050F000F978FFF70DFED4E738140020F0160020F1
:105100002DE9F0410546FFF71FF910B90020BDE871
:10511000F081FFF721F906460028F7D14FF0C808C3
:10512000242418FB0544174F3C44204600F026FD7C
:105130000028EBD008FB05773046B978FFF7D6FD9D
:105140000028E3D04022104B204602EBC5141C443B
:10515000214600F089FD054680B1034622463046CF
:10516000B978FFF7E7FD38B94FF0E023D3F8F03D09
:10517000DB07CBD500BEC9E72846C8E7B978FFF7FB
:10518000C7FDC3E738140020F016002038B54FF6ED
:10519000FF734FF0240CC8249A4228BF1A4614FB10
:1051A00000C40A4B92B21C440546204600F00AFE99
:1051B000034620461C4600F0E1FC3F2801D820466B
:1051C00038BD2846FFF79CFF204638BD3814002024
:1051D000C82108B5242301FB0030024A104400F026
:1051E000E7FC08BD38140020F0B50025184C83B04A
:1051F0002946C822204610F093FEFF234FF4E131E8
:105200000822144804F1B8070570009504F1100055
:105210006371A160A27304F138010123402200F000
:105220007DFC0123402204F17801009304F1240065
:1052300000F074FC04F1C0063846FBF7A9FD3046C7
:10524000FBF7A6FDC4E90757C4E90C6503B0F0BD40
:105250003814002070170020094B196B1A6A41B1ED
:1052600012B10022DA611A620022C3E90C22012085
:105270007047002AFBD00120D9611962704700BF36
:1052800038140020002210B50E4C0F48237802601D
:105290000271DA0707D59B070BD5BDE81040012145
:1052A0000A4800F075BE103000F056FE23789B07C8
:1052B000F3D4064800F050FEBDE810400121034839
:1052C00000F066BE70170020381400205C14002027
:1052D000F0B54B7983B0022B03D00025284603B0EC
:1052E000F0BD8B79022BF8D1264FBB783BB14FF044
:1052F000E023D3F8F03DDB07EFD500BEEDE78B7878
:1053000006463B700B780925CC18617824290BD10F
:10531000082A02D80FE0AA420DD323781C446178F2
:105320002B4424299DB2F6D005290AD0042902D1A4
:1053300063790A2B13D00020FFF740FE284603B004
:10534000F0BD21463046FFF7AFFC0028CFD0A37850
:105350007B7023781C442B4461789DB2E6E70A4BAE
:105360002778019301330093022330461A46E1194E
:10537000FFF74CFC0028BAD00E3517FA85F5ADB210
:10538000D9E700BF381400203A140020137803F046
:105390006003202B08D170B5264CB2F804C02378E6
:1053A0009C4503D0002070BD002070475378203BFF
:1053B000032BF7D8DFE803F027230D0201292ED0B5
:1053C00003291ED11C4BE3B100205188AFF30080AC
:1053D00017E0012923D0032913D15588174805F078
:1053E000010686F00101257100F0D2FD144B43B196
:1053F00031460020C5F34002AFF3008001E00129EF
:1054000011D0012070BD01290DD00329F9D10D4B18
:10541000002BF6D000200C49FEF786FAF1E7114682
:10542000FFF7C0FCEDE711460723074AFFF7D4FC5E
:10543000E7E700BF38140020000000005C140020E3
:105440000000000029390010401400202DE9F04729
:10545000364F0C46FA7806468A421D4697F802C037
:105460003CD08C4513D04FF0E023D3F8F03DDB0760
:1054700000D500BE0020BDE8F0872D4B23B12D489C
:1054800000F08CFB00284ED00020FFF797FDBB7882
:10549000A34202D00120BDE8F087274B13B10020C2
:1054A000AFF300800020FFF72BFE0028F2D1234845
:1054B00000F064FB0028EDD1002DEBD015F03F0586
:1054C000E8D13046B978FFF711FC0028E2D02B462E
:1054D0002A463046B978FFF72DFCDBE7DFF8648019
:1054E0009AB2414607F1100000F06CFC144B002BFF
:1054F000C3D07B79FF2BC0D0002DBED007F110099F
:1055000008EB050A02E0C245B7D07B7918F8012BF9
:105510009A42F8D1484600F041FB0028F3D179794E
:10552000AFF30080EFE7AFF30080ADE73814002061
:105530000000000048140020000000005C1400205F
:1055400000000000F0160020F0B5144C85B04FF4B8
:1055500013720021204610F0E3FC402700234FF493
:1055600080760F4D04F5A67219460295009204F557
:1055700094701A460397019600F0CCF9002304F1C9
:1055800028023D44009219460122CDE902570196B6
:10559000201D00F0BFF905B0F0BD00BF9C19002030
:1055A0001C19002010B5054C204600F0DFF9A4F5C9
:1055B000927000F0DBF9012010BD00BFC41A00207A
:1055C00038B50025064C04F59870257000F0C4FC31
:1055D00004F10C0000F0C0FC84F82951657138BD5D
:1055E0009C1900202DE9F84F4B79FF2B02D00020A9
:1055F000BDE8F88F384D0E4695F829310C78002B10
:10560000F5D16F79002FF2D18B780C442B700B7988
:10561000002B3ED0804604EB020B05F5987A05F589
:1056200094796378052B09D0A34502D831E05C4515
:105630002FD223781C446378052BF8D1A34528D9B1
:1056400021464046FFF730FB00283CD0A378DB0919
:1056500023D1504600F080FCA37895F8281185F8F6
:105660002931A3884046C3F30A03A3F50073B3FAB4
:1056700083F35B0963F3410185F82811494600F083
:10568000E3F900B32378317901371C44FBB2994226
:10569000C7D8A11B88B2BDE8F88F104800F05CFCA9
:1056A000A37829796B71A3880020C3F30A03A3F5BB
:1056B0000073B3FA83F35B0963F34101297108496D
:1056C00000F08AF9DEE74FF0E023D3F8F03DDB0786
:1056D0008DD500BE8BE700BF9C190020A8190020C3
:1056E000A019002070B51B4C064694F829C11D4630
:1056F0008C45627904D08A4218BF002018D070BD52
:10570000B4F8343163B9144B23B100201349AAB261
:10571000AFF300803046124900F096F9012070BDC9
:10572000D4F82C11AAB204F5987000F04BFBEAE70C
:105730000C4B1BB10020A9B2AFF3008030460A49E0
:1057400000F04AF90028E9D12A463046064900F01F
:105750000FF9E3E79C190020000000001C1900204D
:10576000C41A002000000000A019002010B582B06B
:10577000B9B101280CD80B7853B1134C012B235429
:1057800002D0012002B010BDFEF7EEFD0028F8D1D6
:105790004FF0E023D3F8F03DDB0700D500BE00203A
:1057A000F0E70124084601A9ADF80440FEF7DCFD4E
:1057B00038B94FF0E023D3F8F03DDA07E2D500BE68
:1057C000E0E7014B1C70DDE7E8170020F8B503782F
:1057D00013F001041AD1037805465A07C3F3800772
:1057E00001D52046F8BD0E464FF0FF31304610F08F
:1057F000A7FD2B7813F001040BD12B785B0709D49C
:105800002B78012443F004032B7003E0002420468E
:10581000F8BD3C46304610F0A3FD2046F8BD00BF61
:1058200070B50C4605464FF0FF31204610F088FD5C
:105830002B78C3F380065B0708D52B7813F00103A0
:1058400011BF00262A7863F382022A70204610F0E6
:1058500087FD304670BD00BFC378828803F0030027
:105860000228C2F30A0205D003281AD0012807D063
:105870000020704702291DD0402A09D80120704716
:10588000022940F2FF3308BF4FF480639342F6D2FF
:105890004FF0E023D3F8F03DDB07E9D500BE002050
:1058A0007047022914BF40234FF480639342EFD323
:1058B0000120E4E7B2F5007FE0D0E9E70A44914235
:1058C00026D291F801C0BCF1050F05D091F800C0B7
:1058D00061448A42F5D8704700B591F802C00CF0D7
:1058E0007F0E00EB4E0E4FEADC1C0EF80C3091F8E8
:1058F00000C061448A4209D991F801C0BCF1050F8A
:10590000EBD091F800C061448A42F5D85DF804FB01
:10591000704700BF2DE9F0418E4682B0009390F8A9
:1059200000C0089EBDF824706EF3000C04461546B6
:10593000012331463A4600F808CBBDF82C8000F030
:10594000EDF806B13FB901200A9BA4F8028063601C
:1059500002B0BDE8F08104F11C063046FBF718FAEE
:105960000DB135460026C4E90556ECE70120704725
:10597000F8B50746084640F2FF13154610F8082B05
:105980000C4612F0020F0CBF3F261E4600F0F6F840
:1059900028B925B12E4202D12378DA0701D500209B
:1059A000F8BD38466178FFF7A1F90028F7D02378D1
:1059B00013F0010307D04FF0E023D3F8F03DDB07ED
:1059C000EDD500BEEBE71A4638466178FFF7B2F92D
:1059D0000028F0D0F8BD00BF70B501F108050646FB
:1059E00028460C4600F0CAF810B12378D80701D534
:1059F000002070BD30466178FFF778F90028F7D0B5
:105A000028466288616800F02FF92378054648B17E
:105A1000D9070ED54FF0E023D3F8F03DDA07E7D5EC
:105A200000BEE5E7DB07E3D430466178FFF770F9A5
:105A3000DEE70346626830466178FFF77BF90028AD
:105A4000E8D0284670BD00BF8B892DE9F0410C4697
:105A5000064693B90B78DF0727D44978FFF746F954
:105A600018B322786388D50741D54FF0E023D3F8E7
:105A7000F03DDA0719D500BE17E00D464FF6C072AB
:105A800015F8083B03F00203002B28460BBF17460E
:105A90004FF47E474FF040084FF4007800F088F84C
:105AA000804502D82378D80702D50020BDE8F081D0
:105AB00030466178FFF71AF90028F6D0284600F042
:105AC00077F880451FD823786288D907CDD438402D
:105AD000904228BF104661780546E0B162682B46C7
